{
  "_format": "hh-sol-artifact-1",
  "contractName": "GATOtoken",
  "sourceName": "contracts/GATOtoken.sol",
  "abi": [
    {
      "inputs": [
        {
          "internalType": "string",
          "name": "name",
          "type": "string"
        },
        {
          "internalType": "string",
          "name": "symbol",
          "type": "string"
        }
      ],
      "stateMutability": "nonpayable",
      "type": "constructor"
    },
    {
      "anonymous": false,
      "inputs": [
        {
          "indexed": true,
          "internalType": "address",
          "name": "owner",
          "type": "address"
        },
        {
          "indexed": true,
          "internalType": "address",
          "name": "spender",
          "type": "address"
        },
        {
          "indexed": false,
          "internalType": "uint256",
          "name": "value",
          "type": "uint256"
        }
      ],
      "name": "Approval",
      "type": "event"
    },
    {
      "anonymous": false,
      "inputs": [
        {
          "indexed": false,
          "internalType": "address",
          "name": "account",
          "type": "address"
        }
      ],
      "name": "Paused",
      "type": "event"
    },
    {
      "anonymous": false,
      "inputs": [
        {
          "indexed": true,
          "internalType": "bytes32",
          "name": "role",
          "type": "bytes32"
        },
        {
          "indexed": true,
          "internalType": "bytes32",
          "name": "previousAdminRole",
          "type": "bytes32"
        },
        {
          "indexed": true,
          "internalType": "bytes32",
          "name": "newAdminRole",
          "type": "bytes32"
        }
      ],
      "name": "RoleAdminChanged",
      "type": "event"
    },
    {
      "anonymous": false,
      "inputs": [
        {
          "indexed": true,
          "internalType": "bytes32",
          "name": "role",
          "type": "bytes32"
        },
        {
          "indexed": true,
          "internalType": "address",
          "name": "account",
          "type": "address"
        },
        {
          "indexed": true,
          "internalType": "address",
          "name": "sender",
          "type": "address"
        }
      ],
      "name": "RoleGranted",
      "type": "event"
    },
    {
      "anonymous": false,
      "inputs": [
        {
          "indexed": true,
          "internalType": "bytes32",
          "name": "role",
          "type": "bytes32"
        },
        {
          "indexed": true,
          "internalType": "address",
          "name": "account",
          "type": "address"
        },
        {
          "indexed": true,
          "internalType": "address",
          "name": "sender",
          "type": "address"
        }
      ],
      "name": "RoleRevoked",
      "type": "event"
    },
    {
      "anonymous": false,
      "inputs": [
        {
          "indexed": true,
          "internalType": "address",
          "name": "from",
          "type": "address"
        },
        {
          "indexed": true,
          "internalType": "address",
          "name": "to",
          "type": "address"
        },
        {
          "indexed": false,
          "internalType": "uint256",
          "name": "value",
          "type": "uint256"
        }
      ],
      "name": "Transfer",
      "type": "event"
    },
    {
      "anonymous": false,
      "inputs": [
        {
          "indexed": false,
          "internalType": "address",
          "name": "account",
          "type": "address"
        }
      ],
      "name": "Unpaused",
      "type": "event"
    },
    {
      "inputs": [],
      "name": "DEFAULT_ADMIN_ROLE",
      "outputs": [
        {
          "internalType": "bytes32",
          "name": "",
          "type": "bytes32"
        }
      ],
      "stateMutability": "view",
      "type": "function"
    },
    {
      "inputs": [],
      "name": "MINTER_ROLE",
      "outputs": [
        {
          "internalType": "bytes32",
          "name": "",
          "type": "bytes32"
        }
      ],
      "stateMutability": "view",
      "type": "function"
    },
    {
      "inputs": [],
      "name": "PAUSER_ROLE",
      "outputs": [
        {
          "internalType": "bytes32",
          "name": "",
          "type": "bytes32"
        }
      ],
      "stateMutability": "view",
      "type": "function"
    },
    {
      "inputs": [
        {
          "internalType": "address",
          "name": "owner",
          "type": "address"
        },
        {
          "internalType": "address",
          "name": "spender",
          "type": "address"
        }
      ],
      "name": "allowance",
      "outputs": [
        {
          "internalType": "uint256",
          "name": "",
          "type": "uint256"
        }
      ],
      "stateMutability": "view",
      "type": "function"
    },
    {
      "inputs": [
        {
          "internalType": "address",
          "name": "spender",
          "type": "address"
        },
        {
          "internalType": "uint256",
          "name": "amount",
          "type": "uint256"
        }
      ],
      "name": "approve",
      "outputs": [
        {
          "internalType": "bool",
          "name": "",
          "type": "bool"
        }
      ],
      "stateMutability": "nonpayable",
      "type": "function"
    },
    {
      "inputs": [
        {
          "internalType": "address",
          "name": "account",
          "type": "address"
        }
      ],
      "name": "balanceOf",
      "outputs": [
        {
          "internalType": "uint256",
          "name": "",
          "type": "uint256"
        }
      ],
      "stateMutability": "view",
      "type": "function"
    },
    {
      "inputs": [
        {
          "internalType": "uint256",
          "name": "amount",
          "type": "uint256"
        }
      ],
      "name": "burn",
      "outputs": [],
      "stateMutability": "nonpayable",
      "type": "function"
    },
    {
      "inputs": [
        {
          "internalType": "address",
          "name": "account",
          "type": "address"
        },
        {
          "internalType": "uint256",
          "name": "amount",
          "type": "uint256"
        }
      ],
      "name": "burnFrom",
      "outputs": [],
      "stateMutability": "nonpayable",
      "type": "function"
    },
    {
      "inputs": [],
      "name": "cap",
      "outputs": [
        {
          "internalType": "uint256",
          "name": "",
          "type": "uint256"
        }
      ],
      "stateMutability": "view",
      "type": "function"
    },
    {
      "inputs": [],
      "name": "decimals",
      "outputs": [
        {
          "internalType": "uint8",
          "name": "",
          "type": "uint8"
        }
      ],
      "stateMutability": "view",
      "type": "function"
    },
    {
      "inputs": [
        {
          "internalType": "address",
          "name": "spender",
          "type": "address"
        },
        {
          "internalType": "uint256",
          "name": "subtractedValue",
          "type": "uint256"
        }
      ],
      "name": "decreaseAllowance",
      "outputs": [
        {
          "internalType": "bool",
          "name": "",
          "type": "bool"
        }
      ],
      "stateMutability": "nonpayable",
      "type": "function"
    },
    {
      "inputs": [
        {
          "internalType": "bytes32",
          "name": "role",
          "type": "bytes32"
        }
      ],
      "name": "getRoleAdmin",
      "outputs": [
        {
          "internalType": "bytes32",
          "name": "",
          "type": "bytes32"
        }
      ],
      "stateMutability": "view",
      "type": "function"
    },
    {
      "inputs": [
        {
          "internalType": "bytes32",
          "name": "role",
          "type": "bytes32"
        },
        {
          "internalType": "uint256",
          "name": "index",
          "type": "uint256"
        }
      ],
      "name": "getRoleMember",
      "outputs": [
        {
          "internalType": "address",
          "name": "",
          "type": "address"
        }
      ],
      "stateMutability": "view",
      "type": "function"
    },
    {
      "inputs": [
        {
          "internalType": "bytes32",
          "name": "role",
          "type": "bytes32"
        }
      ],
      "name": "getRoleMemberCount",
      "outputs": [
        {
          "internalType": "uint256",
          "name": "",
          "type": "uint256"
        }
      ],
      "stateMutability": "view",
      "type": "function"
    },
    {
      "inputs": [
        {
          "internalType": "bytes32",
          "name": "role",
          "type": "bytes32"
        },
        {
          "internalType": "address",
          "name": "account",
          "type": "address"
        }
      ],
      "name": "grantRole",
      "outputs": [],
      "stateMutability": "nonpayable",
      "type": "function"
    },
    {
      "inputs": [
        {
          "internalType": "bytes32",
          "name": "role",
          "type": "bytes32"
        },
        {
          "internalType": "address",
          "name": "account",
          "type": "address"
        }
      ],
      "name": "hasRole",
      "outputs": [
        {
          "internalType": "bool",
          "name": "",
          "type": "bool"
        }
      ],
      "stateMutability": "view",
      "type": "function"
    },
    {
      "inputs": [
        {
          "internalType": "address",
          "name": "spender",
          "type": "address"
        },
        {
          "internalType": "uint256",
          "name": "addedValue",
          "type": "uint256"
        }
      ],
      "name": "increaseAllowance",
      "outputs": [
        {
          "internalType": "bool",
          "name": "",
          "type": "bool"
        }
      ],
      "stateMutability": "nonpayable",
      "type": "function"
    },
    {
      "inputs": [
        {
          "internalType": "address",
          "name": "to",
          "type": "address"
        },
        {
          "internalType": "uint256",
          "name": "amount",
          "type": "uint256"
        }
      ],
      "name": "mint",
      "outputs": [],
      "stateMutability": "nonpayable",
      "type": "function"
    },
    {
      "inputs": [],
      "name": "name",
      "outputs": [
        {
          "internalType": "string",
          "name": "",
          "type": "string"
        }
      ],
      "stateMutability": "view",
      "type": "function"
    },
    {
      "inputs": [],
      "name": "pause",
      "outputs": [],
      "stateMutability": "nonpayable",
      "type": "function"
    },
    {
      "inputs": [],
      "name": "paused",
      "outputs": [
        {
          "internalType": "bool",
          "name": "",
          "type": "bool"
        }
      ],
      "stateMutability": "view",
      "type": "function"
    },
    {
      "inputs": [
        {
          "internalType": "bytes32",
          "name": "role",
          "type": "bytes32"
        },
        {
          "internalType": "address",
          "name": "account",
          "type": "address"
        }
      ],
      "name": "renounceRole",
      "outputs": [],
      "stateMutability": "nonpayable",
      "type": "function"
    },
    {
      "inputs": [
        {
          "internalType": "bytes32",
          "name": "role",
          "type": "bytes32"
        },
        {
          "internalType": "address",
          "name": "account",
          "type": "address"
        }
      ],
      "name": "revokeRole",
      "outputs": [],
      "stateMutability": "nonpayable",
      "type": "function"
    },
    {
      "inputs": [
        {
          "internalType": "bytes4",
          "name": "interfaceId",
          "type": "bytes4"
        }
      ],
      "name": "supportsInterface",
      "outputs": [
        {
          "internalType": "bool",
          "name": "",
          "type": "bool"
        }
      ],
      "stateMutability": "view",
      "type": "function"
    },
    {
      "inputs": [],
      "name": "symbol",
      "outputs": [
        {
          "internalType": "string",
          "name": "",
          "type": "string"
        }
      ],
      "stateMutability": "view",
      "type": "function"
    },
    {
      "inputs": [],
      "name": "totalSupply",
      "outputs": [
        {
          "internalType": "uint256",
          "name": "",
          "type": "uint256"
        }
      ],
      "stateMutability": "view",
      "type": "function"
    },
    {
      "inputs": [
        {
          "internalType": "address",
          "name": "recipient",
          "type": "address"
        },
        {
          "internalType": "uint256",
          "name": "amount",
          "type": "uint256"
        }
      ],
      "name": "transfer",
      "outputs": [
        {
          "internalType": "bool",
          "name": "",
          "type": "bool"
        }
      ],
      "stateMutability": "nonpayable",
      "type": "function"
    },
    {
      "inputs": [
        {
          "internalType": "address",
          "name": "sender",
          "type": "address"
        },
        {
          "internalType": "address",
          "name": "recipient",
          "type": "address"
        },
        {
          "internalType": "uint256",
          "name": "amount",
          "type": "uint256"
        }
      ],
      "name": "transferFrom",
      "outputs": [
        {
          "internalType": "bool",
          "name": "",
          "type": "bool"
        }
      ],
      "stateMutability": "nonpayable",
      "type": "function"
    },
    {
      "inputs": [],
      "name": "unpause",
      "outputs": [],
      "stateMutability": "nonpayable",
      "type": "function"
    }
  ],
  "bytecode": "0x60a06040526b1027e72f1f128130880000006080523480156200002157600080fd5b5060405162001eab38038062001eab8339810160408190526200004491620003c5565b8151829082906200005d90600590602085019062000252565b5080516200007390600690602084019062000252565b50506007805460ff19169055506200008d600033620000ed565b620000b97f9f2df0fed2c77648de5860a4cc508cd0818c85b8b8a1ab4ceeef8d981c8956a633620000ed565b620000e57f65d7a28e3265b37a6474929f336521b332c1681b933f6cb9f3376673440d862a33620000ed565b50506200046c565b6200010482826200013060201b62000a691760201c565b60008281526001602090815260409091206200012b91839062000a7362000140821b17901c565b505050565b6200013c828262000160565b5050565b600062000157836001600160a01b03841662000200565b90505b92915050565b6000828152602081815260408083206001600160a01b038516845290915290205460ff166200013c576000828152602081815260408083206001600160a01b03851684529091529020805460ff19166001179055620001bc3390565b6001600160a01b0316816001600160a01b0316837f2f8788117e7eff1d82e926ec794901d17c78024a50270940304540a733656f0d60405160405180910390a45050565b600081815260018301602052604081205462000249575081546001818101845560008481526020808220909301849055845484825282860190935260409020919091556200015a565b5060006200015a565b82805462000260906200042f565b90600052602060002090601f016020900481019282620002845760008555620002cf565b82601f106200029f57805160ff1916838001178555620002cf565b82800160010185558215620002cf579182015b82811115620002cf578251825591602001919060010190620002b2565b50620002dd929150620002e1565b5090565b5b80821115620002dd5760008155600101620002e2565b634e487b7160e01b600052604160045260246000fd5b600082601f8301126200032057600080fd5b81516001600160401b03808211156200033d576200033d620002f8565b604051601f8301601f19908116603f01168101908282118183101715620003685762000368620002f8565b816040528381526020925086838588010111156200038557600080fd5b600091505b83821015620003a957858201830151818301840152908201906200038a565b83821115620003bb5760008385830101525b9695505050505050565b60008060408385031215620003d957600080fd5b82516001600160401b0380821115620003f157600080fd5b620003ff868387016200030e565b935060208501519150808211156200041657600080fd5b5062000425858286016200030e565b9150509250929050565b600181811c908216806200044457607f821691505b602082108114156200046657634e487b7160e01b600052602260045260246000fd5b50919050565b608051611a1c6200048f60003960008181610292015261079e0152611a1c6000f3fe608060405234801561001057600080fd5b50600436106101cf5760003560e01c80635c975abb11610104578063a217fddf116100a2578063d539139311610071578063d5391393146103e0578063d547741f14610407578063dd62ed3e1461041a578063e63ab1e91461045357600080fd5b8063a217fddf1461039f578063a457c2d7146103a7578063a9059cbb146103ba578063ca15c873146103cd57600080fd5b80638456cb59116100de5780638456cb59146103515780639010d07c1461035957806391d148541461038457806395d89b411461039757600080fd5b80635c975abb1461030a57806370a082311461031557806379cc67901461033e57600080fd5b8063313ce56711610171578063395093511161014b57806339509351146102c95780633f4ba83a146102dc57806340c10f19146102e457806342966c68146102f757600080fd5b8063313ce56714610281578063355274ea1461029057806336568abe146102b657600080fd5b806318160ddd116101ad57806318160ddd1461022457806323b872dd14610236578063248a9ca3146102495780632f2ff15d1461026c57600080fd5b806301ffc9a7146101d457806306fdde03146101fc578063095ea7b314610211575b600080fd5b6101e76101e23660046116be565b61047a565b60405190151581526020015b60405180910390f35b6102046104a5565b6040516101f39190611718565b6101e761021f366004611767565b610537565b6004545b6040519081526020016101f3565b6101e7610244366004611791565b61054d565b6102286102573660046117cd565b60009081526020819052604090206001015490565b61027f61027a3660046117e6565b6105fc565b005b604051601281526020016101f3565b7f0000000000000000000000000000000000000000000000000000000000000000610228565b61027f6102c43660046117e6565b610623565b6101e76102d7366004611767565b610645565b61027f610681565b61027f6102f2366004611767565b610715565b61027f6103053660046117cd565b61082d565b60075460ff166101e7565b610228610323366004611812565b6001600160a01b031660009081526002602052604090205490565b61027f61034c366004611767565b61083a565b61027f6108bb565b61036c61036736600461182d565b61094b565b6040516001600160a01b0390911681526020016101f3565b6101e76103923660046117e6565b61096a565b610204610993565b610228600081565b6101e76103b5366004611767565b6109a2565b6101e76103c8366004611767565b610a3b565b6102286103db3660046117cd565b610a48565b6102287f9f2df0fed2c77648de5860a4cc508cd0818c85b8b8a1ab4ceeef8d981c8956a681565b61027f6104153660046117e6565b610a5f565b61022861042836600461184f565b6001600160a01b03918216600090815260036020908152604080832093909416825291909152205490565b6102287f65d7a28e3265b37a6474929f336521b332c1681b933f6cb9f3376673440d862a81565b60006001600160e01b03198216635a05180f60e01b148061049f575061049f82610a88565b92915050565b6060600580546104b490611879565b80601f01602080910402602001604051908101604052809291908181526020018280546104e090611879565b801561052d5780601f106105025761010080835404028352916020019161052d565b820191906000526020600020905b81548152906001019060200180831161051057829003601f168201915b5050505050905090565b6000610544338484610abd565b50600192915050565b600061055a848484610be2565b6001600160a01b0384166000908152600360209081526040808320338452909152902054828110156105e45760405162461bcd60e51b815260206004820152602860248201527f45524332303a207472616e7366657220616d6f756e74206578636565647320616044820152676c6c6f77616e636560c01b60648201526084015b60405180910390fd5b6105f18533858403610abd565b506001949350505050565b6106068282610dbc565b600082815260016020526040902061061e9082610a73565b505050565b61062d8282610de2565b600082815260016020526040902061061e9082610e5c565b3360008181526003602090815260408083206001600160a01b0387168452909152812054909161054491859061067c9086906118ca565b610abd565b6106ab7f65d7a28e3265b37a6474929f336521b332c1681b933f6cb9f3376673440d862a3361096a565b61070b5760405162461bcd60e51b815260206004820152602b60248201527f4741544f746f6b656e3a206d75737420686176652070617573657220726f6c6560448201526a20746f20756e706175736560a81b60648201526084016105db565b610713610e71565b565b61073f7f9f2df0fed2c77648de5860a4cc508cd0818c85b8b8a1ab4ceeef8d981c8956a63361096a565b61079c5760405162461bcd60e51b815260206004820152602860248201527f4741544f746f6b656e3a206d7573742068617665206d696e74657220726f6c65604482015267081d1bc81b5a5b9d60c21b60648201526084016105db565b7f0000000000000000000000000000000000000000000000000000000000000000816107c760045490565b6107d191906118ca565b111561081f5760405162461bcd60e51b815260206004820152601760248201527f4741544f746f6b656e3a2063617020657863656564656400000000000000000060448201526064016105db565b6108298282610f04565b5050565b6108373382610fef565b50565b60006108468333610428565b9050818110156108a45760405162461bcd60e51b8152602060048201526024808201527f45524332303a206275726e20616d6f756e74206578636565647320616c6c6f77604482015263616e636560e01b60648201526084016105db565b6108b18333848403610abd565b61061e8383610fef565b6108e57f65d7a28e3265b37a6474929f336521b332c1681b933f6cb9f3376673440d862a3361096a565b6109435760405162461bcd60e51b815260206004820152602960248201527f4741544f746f6b656e3a206d75737420686176652070617573657220726f6c6560448201526820746f20706175736560b81b60648201526084016105db565b610713611141565b600082815260016020526040812061096390836111bc565b9392505050565b6000918252602082815260408084206001600160a01b0393909316845291905290205460ff1690565b6060600680546104b490611879565b3360009081526003602090815260408083206001600160a01b038616845290915281205482811015610a245760405162461bcd60e51b815260206004820152602560248201527f45524332303a2064656372656173656420616c6c6f77616e63652062656c6f77604482015264207a65726f60d81b60648201526084016105db565b610a313385858403610abd565b5060019392505050565b6000610544338484610be2565b600081815260016020526040812061049f906111c8565b61062d82826111d2565b61082982826111f8565b6000610963836001600160a01b03841661127c565b60006001600160e01b03198216637965db0b60e01b148061049f57506301ffc9a760e01b6001600160e01b031983161461049f565b6001600160a01b038316610b1f5760405162461bcd60e51b8152602060048201526024808201527f45524332303a20617070726f76652066726f6d20746865207a65726f206164646044820152637265737360e01b60648201526084016105db565b6001600160a01b038216610b805760405162461bcd60e51b815260206004820152602260248201527f45524332303a20617070726f766520746f20746865207a65726f206164647265604482015261737360f01b60648201526084016105db565b6001600160a01b0383811660008181526003602090815260408083209487168084529482529182902085905590518481527f8c5be1e5ebec7d5bd14f71427d1e84f3dd0314c0f7b2291e5b200ac8c7c3b92591015b60405180910390a3505050565b6001600160a01b038316610c465760405162461bcd60e51b815260206004820152602560248201527f45524332303a207472616e736665722066726f6d20746865207a65726f206164604482015264647265737360d81b60648201526084016105db565b6001600160a01b038216610ca85760405162461bcd60e51b815260206004820152602360248201527f45524332303a207472616e7366657220746f20746865207a65726f206164647260448201526265737360e81b60648201526084016105db565b610cb38383836112cb565b6001600160a01b03831660009081526002602052604090205481811015610d2b5760405162461bcd60e51b815260206004820152602660248201527f45524332303a207472616e7366657220616d6f756e7420657863656564732062604482015265616c616e636560d01b60648201526084016105db565b6001600160a01b03808516600090815260026020526040808220858503905591851681529081208054849290610d629084906118ca565b92505081905550826001600160a01b0316846001600160a01b03167fddf252ad1be2c89b69c2b068fc378daa952ba7f163c4a11628f55a4df523b3ef84604051610dae91815260200190565b60405180910390a350505050565b600082815260208190526040902060010154610dd881336112d6565b61061e83836111f8565b6001600160a01b0381163314610e525760405162461bcd60e51b815260206004820152602f60248201527f416363657373436f6e74726f6c3a2063616e206f6e6c792072656e6f756e636560448201526e103937b632b9903337b91039b2b63360891b60648201526084016105db565b610829828261133a565b6000610963836001600160a01b03841661139f565b60075460ff16610eba5760405162461bcd60e51b815260206004820152601460248201527314185d5cd8589b194e881b9bdd081c185d5cd95960621b60448201526064016105db565b6007805460ff191690557f5db9ee0a495bf2e6ff9c91a7834c1ba4fdd244a5e8aa4e537bd38aeae4b073aa335b6040516001600160a01b03909116815260200160405180910390a1565b6001600160a01b038216610f5a5760405162461bcd60e51b815260206004820152601f60248201527f45524332303a206d696e7420746f20746865207a65726f20616464726573730060448201526064016105db565b610f66600083836112cb565b8060046000828254610f7891906118ca565b90915550506001600160a01b03821660009081526002602052604081208054839290610fa59084906118ca565b90915550506040518181526001600160a01b038316906000907fddf252ad1be2c89b69c2b068fc378daa952ba7f163c4a11628f55a4df523b3ef9060200160405180910390a35050565b6001600160a01b03821661104f5760405162461bcd60e51b815260206004820152602160248201527f45524332303a206275726e2066726f6d20746865207a65726f206164647265736044820152607360f81b60648201526084016105db565b61105b826000836112cb565b6001600160a01b038216600090815260026020526040902054818110156110cf5760405162461bcd60e51b815260206004820152602260248201527f45524332303a206275726e20616d6f756e7420657863656564732062616c616e604482015261636560f01b60648201526084016105db565b6001600160a01b03831660009081526002602052604081208383039055600480548492906110fe9084906118e2565b90915550506040518281526000906001600160a01b038516907fddf252ad1be2c89b69c2b068fc378daa952ba7f163c4a11628f55a4df523b3ef90602001610bd5565b60075460ff16156111875760405162461bcd60e51b815260206004820152601060248201526f14185d5cd8589b194e881c185d5cd95960821b60448201526064016105db565b6007805460ff191660011790557f62e78cea01bee320cd4e420270b5ea74000d11b0c9f74754ebdbfc544b05a258610ee73390565b60006109638383611492565b600061049f825490565b6000828152602081905260409020600101546111ee81336112d6565b61061e838361133a565b611202828261096a565b610829576000828152602081815260408083206001600160a01b03851684529091529020805460ff191660011790556112383390565b6001600160a01b0316816001600160a01b0316837f2f8788117e7eff1d82e926ec794901d17c78024a50270940304540a733656f0d60405160405180910390a45050565b60008181526001830160205260408120546112c35750815460018181018455600084815260208082209093018490558454848252828601909352604090209190915561049f565b50600061049f565b61061e8383836114bc565b6112e0828261096a565b610829576112f8816001600160a01b03166014611522565b611303836020611522565b6040516020016113149291906118f9565b60408051601f198184030181529082905262461bcd60e51b82526105db91600401611718565b611344828261096a565b15610829576000828152602081815260408083206001600160a01b0385168085529252808320805460ff1916905551339285917ff6391f5c32d9c69d2a47ea670b442974b53935d1edc7fd64eb21e047a839171b9190a45050565b600081815260018301602052604081205480156114885760006113c36001836118e2565b85549091506000906113d7906001906118e2565b905081811461143c5760008660000182815481106113f7576113f761196e565b906000526020600020015490508087600001848154811061141a5761141a61196e565b6000918252602080832090910192909255918252600188019052604090208390555b855486908061144d5761144d611984565b60019003818190600052602060002001600090559055856001016000868152602001908152602001600020600090556001935050505061049f565b600091505061049f565b60008260000182815481106114a9576114a961196e565b9060005260206000200154905092915050565b60075460ff161561061e5760405162461bcd60e51b815260206004820152602a60248201527f45524332305061757361626c653a20746f6b656e207472616e736665722077686044820152691a5b19481c185d5cd95960b21b60648201526084016105db565b6060600061153183600261199a565b61153c9060026118ca565b67ffffffffffffffff811115611554576115546119b9565b6040519080825280601f01601f19166020018201604052801561157e576020820181803683370190505b509050600360fc1b816000815181106115995761159961196e565b60200101906001600160f81b031916908160001a905350600f60fb1b816001815181106115c8576115c861196e565b60200101906001600160f81b031916908160001a90535060006115ec84600261199a565b6115f79060016118ca565b90505b600181111561166f576f181899199a1a9b1b9c1cb0b131b232b360811b85600f166010811061162b5761162b61196e565b1a60f81b8282815181106116415761164161196e565b60200101906001600160f81b031916908160001a90535060049490941c93611668816119cf565b90506115fa565b5083156109635760405162461bcd60e51b815260206004820181905260248201527f537472696e67733a20686578206c656e67746820696e73756666696369656e7460448201526064016105db565b6000602082840312156116d057600080fd5b81356001600160e01b03198116811461096357600080fd5b60005b838110156117035781810151838201526020016116eb565b83811115611712576000848401525b50505050565b60208152600082518060208401526117378160408501602087016116e8565b601f01601f19169190910160400192915050565b80356001600160a01b038116811461176257600080fd5b919050565b6000806040838503121561177a57600080fd5b6117838361174b565b946020939093013593505050565b6000806000606084860312156117a657600080fd5b6117af8461174b565b92506117bd6020850161174b565b9150604084013590509250925092565b6000602082840312156117df57600080fd5b5035919050565b600080604083850312156117f957600080fd5b823591506118096020840161174b565b90509250929050565b60006020828403121561182457600080fd5b6109638261174b565b6000806040838503121561184057600080fd5b50508035926020909101359150565b6000806040838503121561186257600080fd5b61186b8361174b565b91506118096020840161174b565b600181811c9082168061188d57607f821691505b602082108114156118ae57634e487b7160e01b600052602260045260246000fd5b50919050565b634e487b7160e01b600052601160045260246000fd5b600082198211156118dd576118dd6118b4565b500190565b6000828210156118f4576118f46118b4565b500390565b7f416363657373436f6e74726f6c3a206163636f756e74200000000000000000008152600083516119318160178501602088016116e8565b7001034b99036b4b9b9b4b733903937b6329607d1b60179184019182015283516119628160288401602088016116e8565b01602801949350505050565b634e487b7160e01b600052603260045260246000fd5b634e487b7160e01b600052603160045260246000fd5b60008160001904831182151516156119b4576119b46118b4565b500290565b634e487b7160e01b600052604160045260246000fd5b6000816119de576119de6118b4565b50600019019056fea2646970667358221220ebd7d63fe0c7682e431a14701271c0fe9004c1b8d68495e1e10c03ad3e178fae64736f6c634300080a0033",
  "linkReferences": {},
  "deployedLinkReferences": {}
}