{
  "_format": "hh-sol-artifact-1",
  "contractName": "GUSD",
  "sourceName": "contracts/GUSD.sol",
  "abi": [
    {
      "inputs": [],
      "stateMutability": "nonpayable",
      "type": "constructor"
    },
    {
      "anonymous": false,
      "inputs": [
        {
          "indexed": true,
          "internalType": "address",
          "name": "owner",
          "type": "address"
        },
        {
          "indexed": true,
          "internalType": "address",
          "name": "spender",
          "type": "address"
        },
        {
          "indexed": false,
          "internalType": "uint256",
          "name": "value",
          "type": "uint256"
        }
      ],
      "name": "Approval",
      "type": "event"
    },
    {
      "anonymous": false,
      "inputs": [
        {
          "indexed": true,
          "internalType": "address",
          "name": "previousOwner",
          "type": "address"
        },
        {
          "indexed": true,
          "internalType": "address",
          "name": "newOwner",
          "type": "address"
        }
      ],
      "name": "OwnershipTransferred",
      "type": "event"
    },
    {
      "anonymous": false,
      "inputs": [
        {
          "indexed": true,
          "internalType": "address",
          "name": "from",
          "type": "address"
        },
        {
          "indexed": true,
          "internalType": "address",
          "name": "to",
          "type": "address"
        },
        {
          "indexed": false,
          "internalType": "uint256",
          "name": "value",
          "type": "uint256"
        }
      ],
      "name": "Transfer",
      "type": "event"
    },
    {
      "inputs": [],
      "name": "_decimals",
      "outputs": [
        {
          "internalType": "uint8",
          "name": "",
          "type": "uint8"
        }
      ],
      "stateMutability": "view",
      "type": "function"
    },
    {
      "inputs": [],
      "name": "_name",
      "outputs": [
        {
          "internalType": "string",
          "name": "",
          "type": "string"
        }
      ],
      "stateMutability": "view",
      "type": "function"
    },
    {
      "inputs": [],
      "name": "_symbol",
      "outputs": [
        {
          "internalType": "string",
          "name": "",
          "type": "string"
        }
      ],
      "stateMutability": "view",
      "type": "function"
    },
    {
      "inputs": [
        {
          "internalType": "address",
          "name": "owner",
          "type": "address"
        },
        {
          "internalType": "address",
          "name": "spender",
          "type": "address"
        }
      ],
      "name": "allowance",
      "outputs": [
        {
          "internalType": "uint256",
          "name": "",
          "type": "uint256"
        }
      ],
      "stateMutability": "view",
      "type": "function"
    },
    {
      "inputs": [
        {
          "internalType": "address",
          "name": "spender",
          "type": "address"
        },
        {
          "internalType": "uint256",
          "name": "amount",
          "type": "uint256"
        }
      ],
      "name": "approve",
      "outputs": [
        {
          "internalType": "bool",
          "name": "",
          "type": "bool"
        }
      ],
      "stateMutability": "nonpayable",
      "type": "function"
    },
    {
      "inputs": [
        {
          "internalType": "address",
          "name": "account",
          "type": "address"
        }
      ],
      "name": "balanceOf",
      "outputs": [
        {
          "internalType": "uint256",
          "name": "",
          "type": "uint256"
        }
      ],
      "stateMutability": "view",
      "type": "function"
    },
    {
      "inputs": [
        {
          "internalType": "uint256",
          "name": "amount",
          "type": "uint256"
        }
      ],
      "name": "burn",
      "outputs": [
        {
          "internalType": "bool",
          "name": "",
          "type": "bool"
        }
      ],
      "stateMutability": "nonpayable",
      "type": "function"
    },
    {
      "inputs": [],
      "name": "decimals",
      "outputs": [
        {
          "internalType": "uint8",
          "name": "",
          "type": "uint8"
        }
      ],
      "stateMutability": "view",
      "type": "function"
    },
    {
      "inputs": [
        {
          "internalType": "address",
          "name": "spender",
          "type": "address"
        },
        {
          "internalType": "uint256",
          "name": "subtractedValue",
          "type": "uint256"
        }
      ],
      "name": "decreaseAllowance",
      "outputs": [
        {
          "internalType": "bool",
          "name": "",
          "type": "bool"
        }
      ],
      "stateMutability": "nonpayable",
      "type": "function"
    },
    {
      "inputs": [],
      "name": "getOwner",
      "outputs": [
        {
          "internalType": "address",
          "name": "",
          "type": "address"
        }
      ],
      "stateMutability": "view",
      "type": "function"
    },
    {
      "inputs": [
        {
          "internalType": "address",
          "name": "spender",
          "type": "address"
        },
        {
          "internalType": "uint256",
          "name": "addedValue",
          "type": "uint256"
        }
      ],
      "name": "increaseAllowance",
      "outputs": [
        {
          "internalType": "bool",
          "name": "",
          "type": "bool"
        }
      ],
      "stateMutability": "nonpayable",
      "type": "function"
    },
    {
      "inputs": [
        {
          "internalType": "uint256",
          "name": "amount",
          "type": "uint256"
        }
      ],
      "name": "mint",
      "outputs": [
        {
          "internalType": "bool",
          "name": "",
          "type": "bool"
        }
      ],
      "stateMutability": "nonpayable",
      "type": "function"
    },
    {
      "inputs": [],
      "name": "name",
      "outputs": [
        {
          "internalType": "string",
          "name": "",
          "type": "string"
        }
      ],
      "stateMutability": "view",
      "type": "function"
    },
    {
      "inputs": [],
      "name": "owner",
      "outputs": [
        {
          "internalType": "address",
          "name": "",
          "type": "address"
        }
      ],
      "stateMutability": "view",
      "type": "function"
    },
    {
      "inputs": [],
      "name": "renounceOwnership",
      "outputs": [],
      "stateMutability": "nonpayable",
      "type": "function"
    },
    {
      "inputs": [],
      "name": "symbol",
      "outputs": [
        {
          "internalType": "string",
          "name": "",
          "type": "string"
        }
      ],
      "stateMutability": "view",
      "type": "function"
    },
    {
      "inputs": [],
      "name": "totalSupply",
      "outputs": [
        {
          "internalType": "uint256",
          "name": "",
          "type": "uint256"
        }
      ],
      "stateMutability": "view",
      "type": "function"
    },
    {
      "inputs": [
        {
          "internalType": "address",
          "name": "recipient",
          "type": "address"
        },
        {
          "internalType": "uint256",
          "name": "amount",
          "type": "uint256"
        }
      ],
      "name": "transfer",
      "outputs": [
        {
          "internalType": "bool",
          "name": "",
          "type": "bool"
        }
      ],
      "stateMutability": "nonpayable",
      "type": "function"
    },
    {
      "inputs": [
        {
          "internalType": "address",
          "name": "sender",
          "type": "address"
        },
        {
          "internalType": "address",
          "name": "recipient",
          "type": "address"
        },
        {
          "internalType": "uint256",
          "name": "amount",
          "type": "uint256"
        }
      ],
      "name": "transferFrom",
      "outputs": [
        {
          "internalType": "bool",
          "name": "",
          "type": "bool"
        }
      ],
      "stateMutability": "nonpayable",
      "type": "function"
    },
    {
      "inputs": [
        {
          "internalType": "address",
          "name": "newOwner",
          "type": "address"
        }
      ],
      "name": "transferOwnership",
      "outputs": [],
      "stateMutability": "nonpayable",
      "type": "function"
    }
  ],
  "bytecode": "0x60806040523480156200001157600080fd5b50600080546001600160a01b031916339081178255604051909182917f8be0079c531659141344cd1fd0a4f28419497f9722a3daafe3b4186f6b6457e0908290a3506040805180820190915260098082526811d85d1bc81554d11560ba1b6020909201918252620000859160069162000121565b506040805180820190915260048082526311d554d160e21b6020909201918252620000b39160059162000121565b506004805460ff1916600617905563b2d05e0060038190553360008181526001602052604080822084905551919290917fddf252ad1be2c89b69c2b068fc378daa952ba7f163c4a11628f55a4df523b3ef91620001139190815260200190565b60405180910390a362000204565b8280546200012f90620001c7565b90600052602060002090601f0160209004810192826200015357600085556200019e565b82601f106200016e57805160ff19168380011785556200019e565b828001600101855582156200019e579182015b828111156200019e57825182559160200191906001019062000181565b50620001ac929150620001b0565b5090565b5b80821115620001ac5760008155600101620001b1565b600181811c90821680620001dc57607f821691505b60208210811415620001fe57634e487b7160e01b600052602260045260246000fd5b50919050565b610f1180620002146000396000f3fe608060405234801561001057600080fd5b506004361061012c5760003560e01c8063893d20e8116100ad578063a9059cbb11610071578063a9059cbb1461027a578063b09f12661461028d578063d28d885214610295578063dd62ed3e1461029d578063f2fde38b146102d657600080fd5b8063893d20e8146102165780638da5cb5b1461023b57806395d89b411461024c578063a0712d6814610254578063a457c2d71461026757600080fd5b806332424aa3116100f457806332424aa3146101b057806339509351146101bd57806342966c68146101d057806370a08231146101e3578063715018a61461020c57600080fd5b806306fdde0314610131578063095ea7b31461014f57806318160ddd1461017257806323b872dd14610184578063313ce56714610197575b600080fd5b6101396102e9565b6040516101469190610c5c565b60405180910390f35b61016261015d366004610cc8565b61037b565b6040519015158152602001610146565b6003545b604051908152602001610146565b610162610192366004610cf2565b610391565b60045460ff165b60405160ff9091168152602001610146565b60045461019e9060ff1681565b6101626101cb366004610cc8565b6103fa565b6101626101de366004610d2e565b610430565b6101766101f1366004610d47565b6001600160a01b031660009081526001602052604090205490565b610214610444565b005b6000546001600160a01b03165b6040516001600160a01b039091168152602001610146565b6000546001600160a01b0316610223565b6101396104c1565b610162610262366004610d2e565b6104d0565b610162610275366004610cc8565b61050a565b610162610288366004610cc8565b610559565b610139610566565b6101396105f4565b6101766102ab366004610d62565b6001600160a01b03918216600090815260026020908152604080832093909416825291909152205490565b6102146102e4366004610d47565b610601565b6060600680546102f890610d95565b80601f016020809104026020016040519081016040528092919081815260200182805461032490610d95565b80156103715780601f1061034657610100808354040283529160200191610371565b820191906000526020600020905b81548152906001019060200180831161035457829003601f168201915b5050505050905090565b6000610388338484610637565b50600192915050565b600061039e84848461075b565b6103f084336103eb85604051806060016040528060278152602001610e4b602791396001600160a01b038a16600090815260026020908152604080832033845290915290205491906108de565b610637565b5060019392505050565b3360008181526002602090815260408083206001600160a01b038716845290915281205490916103889185906103eb9086610918565b600061043c338361097e565b506001919050565b6000546001600160a01b031633146104775760405162461bcd60e51b815260040161046e90610dd0565b60405180910390fd5b600080546040516001600160a01b03909116907f8be0079c531659141344cd1fd0a4f28419497f9722a3daafe3b4186f6b6457e0908390a3600080546001600160a01b0319169055565b6060600580546102f890610d95565b600080546001600160a01b031633146104fb5760405162461bcd60e51b815260040161046e90610dd0565b61043c3383610a80565b919050565b600061038833846103eb85604051806060016040528060248152602001610e72602491393360009081526002602090815260408083206001600160a01b038d16845290915290205491906108de565b600061038833848461075b565b6005805461057390610d95565b80601f016020809104026020016040519081016040528092919081815260200182805461059f90610d95565b80156105ec5780601f106105c1576101008083540402835291602001916105ec565b820191906000526020600020905b8154815290600101906020018083116105cf57829003601f168201915b505050505081565b6006805461057390610d95565b6000546001600160a01b0316331461062b5760405162461bcd60e51b815260040161046e90610dd0565b61063481610b5a565b50565b6001600160a01b0383166106995760405162461bcd60e51b815260206004820152602360248201527f475553443a20617070726f76652066726f6d20746865207a65726f206164647260448201526265737360e81b606482015260840161046e565b6001600160a01b0382166106f95760405162461bcd60e51b815260206004820152602160248201527f475553443a20617070726f766520746f20746865207a65726f206164647265736044820152607360f81b606482015260840161046e565b6001600160a01b0383811660008181526002602090815260408083209487168084529482529182902085905590518481527f8c5be1e5ebec7d5bd14f71427d1e84f3dd0314c0f7b2291e5b200ac8c7c3b92591015b60405180910390a3505050565b6001600160a01b0383166107bd5760405162461bcd60e51b8152602060048201526024808201527f475553443a207472616e736665722066726f6d20746865207a65726f206164646044820152637265737360e01b606482015260840161046e565b6001600160a01b03821661081e5760405162461bcd60e51b815260206004820152602260248201527f475553443a207472616e7366657220746f20746865207a65726f206164647265604482015261737360f01b606482015260840161046e565b61085b81604051806060016040528060258152602001610e96602591396001600160a01b03861660009081526001602052604090205491906108de565b6001600160a01b03808516600090815260016020526040808220939093559084168152205461088a9082610918565b6001600160a01b0380841660008181526001602052604090819020939093559151908516907fddf252ad1be2c89b69c2b068fc378daa952ba7f163c4a11628f55a4df523b3ef9061074e9085815260200190565b600081848411156109025760405162461bcd60e51b815260040161046e9190610c5c565b50600061090f8486610e1b565b95945050505050565b6000806109258385610e32565b9050838110156109775760405162461bcd60e51b815260206004820152601b60248201527f536166654d6174683a206164646974696f6e206f766572666c6f770000000000604482015260640161046e565b9392505050565b6001600160a01b0382166109d45760405162461bcd60e51b815260206004820181905260248201527f475553443a206275726e2066726f6d20746865207a65726f2061646472657373604482015260640161046e565b610a1181604051806060016040528060218152602001610ebb602191396001600160a01b03851660009081526001602052604090205491906108de565b6001600160a01b038316600090815260016020526040902055600354610a379082610c1a565b6003556040518181526000906001600160a01b038416907fddf252ad1be2c89b69c2b068fc378daa952ba7f163c4a11628f55a4df523b3ef906020015b60405180910390a35050565b6001600160a01b038216610ad65760405162461bcd60e51b815260206004820152601e60248201527f475553443a206d696e7420746f20746865207a65726f20616464726573730000604482015260640161046e565b600354610ae39082610918565b6003556001600160a01b038216600090815260016020526040902054610b099082610918565b6001600160a01b0383166000818152600160205260408082209390935591519091907fddf252ad1be2c89b69c2b068fc378daa952ba7f163c4a11628f55a4df523b3ef90610a749085815260200190565b6001600160a01b038116610bbf5760405162461bcd60e51b815260206004820152602660248201527f4f776e61626c653a206e6577206f776e657220697320746865207a65726f206160448201526564647265737360d01b606482015260840161046e565b600080546040516001600160a01b03808516939216917f8be0079c531659141344cd1fd0a4f28419497f9722a3daafe3b4186f6b6457e091a3600080546001600160a01b0319166001600160a01b0392909216919091179055565b600061097783836040518060400160405280601e81526020017f536166654d6174683a207375627472616374696f6e206f766572666c6f7700008152506108de565b600060208083528351808285015260005b81811015610c8957858101830151858201604001528201610c6d565b81811115610c9b576000604083870101525b50601f01601f1916929092016040019392505050565b80356001600160a01b038116811461050557600080fd5b60008060408385031215610cdb57600080fd5b610ce483610cb1565b946020939093013593505050565b600080600060608486031215610d0757600080fd5b610d1084610cb1565b9250610d1e60208501610cb1565b9150604084013590509250925092565b600060208284031215610d4057600080fd5b5035919050565b600060208284031215610d5957600080fd5b61097782610cb1565b60008060408385031215610d7557600080fd5b610d7e83610cb1565b9150610d8c60208401610cb1565b90509250929050565b600181811c90821680610da957607f821691505b60208210811415610dca57634e487b7160e01b600052602260045260246000fd5b50919050565b6020808252818101527f4f776e61626c653a2063616c6c6572206973206e6f7420746865206f776e6572604082015260600190565b634e487b7160e01b600052601160045260246000fd5b600082821015610e2d57610e2d610e05565b500390565b60008219821115610e4557610e45610e05565b50019056fe475553443a207472616e7366657220616d6f756e74206578636565647320616c6c6f77616e6365475553443a2064656372656173656420616c6c6f77616e63652062656c6f77207a65726f475553443a207472616e7366657220616d6f756e7420657863656564732062616c616e6365475553443a206275726e20616d6f756e7420657863656564732062616c616e6365a26469706673582212203c51cc3d7e6f43f2da591cfd5afa58048beb9d2c10ed1caeda33992f19eea6fe64736f6c634300080a0033",
  "linkReferences": {},
  "deployedLinkReferences": {}
}